:100000000C94FE030C944A0C0C947B0C0C94AC0CDA
:100010000C94DD0C0C940E0D0C943F0D0C94700D93
:100020000C94A10D0C942A040C942A040C942A0418
:100030000C942A040C942A040C942A040C942A0488
:100040000C942A040C942A040C942A040C942A0478
:100050000C942A040C942A040C942A040C94060E82
:100060000C942A040C942E100C945A110C942A040B
:100070000C942A040C942A040C942A040C942A0448
:100080000C942A040C942A040C942A040C942A0438
:100090000C9467100C9499110C942A040C942A0463
:1000A0000C942A040C942A040C942A040C942A0418
:1000B0000C942A040C942A040C942A040C942A0408
:1000C0000C942A040C942A040C942A040C94A01076
:1000D0000C94D8110C942A040C94D9100C94171277
:1000E0000C942A0400002100240027002A002D007F
:1000F0003000330001010000040107010A01000083
:100100002200250028002B002E00310034000201BF
:100110000000050108010B0100002000230026005B
:1001200029002C002F00320000010000030106010D
:10013000090105050505070508080808020202026D
:100140000A0A080804040404010101010101010173
:100150000303030303030303040707070C0C0C0C3E
:100160000C0C0C0C02020202060606060606060627
:100170000B0B0B0B0B0B0B0B0102102020080810B4
:100180002040102040800201020108040201010207
:1001900004081020408080402010080402018004E0
:1001A000020180402010080402010804020101023B
:1001B0000408102040800102040810204080000044
:1001C000090A02080B0C0D070603040100000000D9
:1001D000000000000000000000000000000000001F
:1001E0000000000000000000000011100F000000DF
:1001F00000000000000000000000000000000000FF
:100200000000000000000000003E5B4F5B3E3E6BC4
:100210004F6B3E1C3E7C3E1C183C7E3C181C577DA0
:10022000571C1C5E7F5E1C00183C1800FFE7C3E7EC
:10023000FF0018241800FFE7DBE7FF30483A060EFE
:100240002629792926407F050507407F05253F5A45
:100250003CE73C5A7F3E1C1C08081C1C3E7F1422B5
:100260007F22145F5F005F5F06097F017F00668960
:10027000956A606060606094A2FFA29408047E04A6
:100280000810207E201008082A1C08081C2A0808CC
:100290001E101010100C1E0C1E0C30383E3830068C
:1002A0000E3E0E06000000000000005F0000000788
:1002B000000700147F147F14242A7F2A12231308B6
:1002C000646236495620500008070300001C224192
:1002D000000041221C002A1C7F1C2A08083E080836
:1002E00000807030000808080808000060600020E6
:1002F000100804023E5149453E00427F40007249C9
:100300004949462141494D331814127F102745456C
:1003100045393C4A49493141211109073649494982
:1003200036464949291E00001400000040340000F0
:100330000008142241141414141400412214080259
:10034000015909063E415D594E7C1211127C7F49CC
:100350004949363E414141227F4141413E7F494921
:1003600049417F090909013E414151737F0808084D
:100370007F00417F41002040413F017F081422411E
:100380007F404040407F021C027F7F0408107F3E78
:100390004141413E7F090909063E4151215E7F09E5
:1003A000192946264949493203017F01033F40404C
:1003B000403F1F2040201F3F4038403F6314081437
:1003C0006303047804036159494D43007F4141416F
:1003D0000204081020004141417F04020102044050
:1003E00040404040000307080020545478407F28D4
:1003F0004444383844444428384444287F385454CA
:10040000541800087E090218A4A49C787F080404EC
:100410007800447D40002040403D007F102844008B
:1004200000417F40007C047804787C08040478381C
:1004300044444438FC1824241818242418FC7C084C
:10044000040408485454542404043F44243C4040C9
:10045000207C1C2040201C3C4030403C442810287C
:10046000444C9090907C4464544C440008364100C5
:100470000000770000004136080002010204023C3F
:100480002623263C1EA1A161123A4040207A38540E
:100490005455592155557941215454784121555489
:1004A000784020545579400C1E52721239555555DA
:1004B00059395454545939555454580000457C41C5
:1004C0000002457D420001457C40F0292429F0F0DE
:1004D000282528F07C545545002054547C547C0A2F
:1004E000097F4932494949323248484832324A48FC
:1004F00048303A4141217A3A42402078009DA0A0FC
:100500007D39444444393D4040403D3C24FF24244F
:10051000487E4943662B2FFC2F2BFF0929F620C06C
:10052000887E090320545479410000447D413048BD
:10053000484A32384040227A007A0A0A727D0D1900
:10054000317D2629292F28262929292630484D4062
:1005500020380808080808080808382F10C8ACBA5E
:100560002F102834FA00007B000008142A142222DD
:10057000142A1408AA005500AAAA55AA55AA0000D0
:1005800000FF00101010FF00141414FF001010FFE3
:1005900000FF1010F010F0141414FC001414F700F5
:1005A000FF0000FF00FF1414F404FC141417101FC4
:1005B00010101F101F1414141F00101010F0000052
:1005C00000001F101010101F10101010F01000006D
:1005D00000FF101010101010101010FF100000007D
:1005E000FF140000FF00FF00001F10170000FC04B4
:1005F000F414141710171414F404F40000FF00F797
:1006000014141414141414F700F7141414171410F9
:10061000101F101F141414F4141010F010F0000028
:100620001F101F0000001F14000000FC140000F049
:1006300010F01010FF10FF141414FF141010101FEE
:1006400000000000F010FFFFFFFFFFF0F0F0F0F0FF
:10065000FFFFFF0000000000FFFF0F0F0F0F0F381C
:10066000444438447C2A2A3E147E02020606027E56
:10067000027E0263554941633844443C04407E2075
:100680001E2006027E020299A5E7A5991C2A492A86
:100690001C4C7201724C304A4D4D30304878483015
:1006A000BC625A463D3E494949007E0101017E2A0D
:1006B0002A2A2A2A44445F444440514A4440404440
:1006C0004A51400000FF0103E080FF000008086B72
:1006D0006B083612362436060F090F06000018186C
:1006E0000000001010003040FF0101001F01011E3A
:1006F00000191D1712003C3C3C3C00000000000F9C
:100700000180961180FFB103012C2DB203012C2D25
:10071000B306012C2D012C2DB40107C003A20284C5
:10072000C101C5C2020A00C3028A2AC4028AEEC5F8
:10073000010E20003601C83A0105022A0400020019
:10074000812B04000100A0022A040000007F2B047A
:100750000000009F04E010021C07123732292D29E7
:10076000252B3900010310E110031D07062E2C294B
:100770002D2E2E373F0000021013800A29806412AC
:100780000180321180FF3A81050AB1830006030A15
:10079000360108B6021502B40100C08202700AC117
:1007A0000105C2020102C5823C380AFC021115E0B3
:1007B0001009160920211B131917151E2B040502F9
:1007C0000EE1900B14081E221D181E1B1A242B0666
:1007D00006020F0A2A04000200812B040002008195
:1007E00013800A2980FF7C3C3E5E2B3D3F2F5B5DE2
:1007F0003B2C2A225C002C048113871E11241FBE6F
:10080000CFEFD1E2DEBFCDBF00E00CBF13E0A0E030
:10081000B2E0E2E9FAE600E00BBF02C007900D92F9
:10082000A03EB107D9F719E0A0EEB3E001C01D92D8
:10083000AA34B107E1F717E0CCEFD7E004C0229764
:10084000FE010E944335C63FD107C9F70E949F149D
:100850000C9494340C94000080EE93E066E047E042
:1008600028E00E94661E10920F041092100410924D
:100870001104109212041092130410921404109296
:100880001504109216041092170410921804109276
:10089000190410921A0410921B0410921C04109256
:1008A0001D0410921E040E944E0E60932204709349
:1008B000230480932404909325040895EF92FF92DB
:1008C0000F931F930E944E0E7B018C0180912A048E
:1008D00090912B04A0912C04B0912D04E816F906F8
:1008E0000A071B0740F4E0922A04F0922B040093BD
:1008F0002C0410932D0480912A0490912B04A09134
:100900002C04B0912D040097A105B10589F08091C8
:100910002A0490912B04A0912C04B0912D048C50AA
:100920009E4FAF4FBF4F8E159F05A007B10750F4E4
:100930000E94B408E0922A04F0922B0400932C0445
:1009400010932D041F910F91FF90EF900895EF9257
:10095000FF920F931F930E944E0E7B018C0180919A
:10096000260490912704A0912804B0912904E81648
:10097000F9060A071B0740F4E0922604F0922704C8
:100980000093280410932904809126049091270451
:10099000A0912804B09129040097A105B10589F020
:1009A0008091260490912704A0912804B0912904F5
:1009B0008C509E4FAF4FBF4F8E159F05A007B107BC
:1009C00050F40E94A808E0922604F09227040093B5
:1009D0002804109329041F910F91FF90EF90089520
:1009E000EF92FF920F931F93CF93DF93EC017B0164
:1009F00080E00E94D20D2091D9023091DA028C0160
:100A0000021B130B81E00E94D20D2091DB0230917A
:100A1000DC02821B930B9C01C8010496099710F419
:100A200000E010E0C9010496099710F420E030E0DE
:100A3000C80160E870E00E94F13479836883C901DD
:100A400060E870E00E94F134F701718360830E94D6
:100A50004E0E7B018C018091220490912304A09181
:100A60002404B0912504E816F9060A071B0740F490
:100A7000E0922204F09223040093240410932504AE
:100A80008091DD029091DE02A091DF02B091E00240
:100A90002091220430912304409124045091250494
:100AA000820F931FA41FB51F8E159F05A007B107C6
:100AB00010F080E019C0E0922204F0922304009329
:100AC00024041093250484E00E94FD0F20E0892B6C
:100AD00009F421E080912104882321F080E0222381
:100AE00009F481E020932104DF91CF911F910F91B0
:100AF000FF90EF90089584E060E00E94170F84E07B
:100B000061E00E94CA0F81E00E94D20D9093DA0248
:100B10008093D90280E00E94D20D9093DC028093F2
:100B2000DB02089584EF96E065E00E94EB208823C5
:100B300009F4FFCF08950F931F9300EE13E0C8014F
:100B400061E00E94381EC80160E00E94D91CC80103
:100B500060E070E040E050E00E944C1AC80160E0A4
:100B600070E00E94581AC80161E00E94521AC80140
:100B70006FE170E00E94461C1F910F910895EF9263
:100B8000FF920F931F93CF93DF93EC0180911F048B
:100B9000909120048C179D0789F1D0932004C09375
:100BA0001F0480EE93E060E070E044E950E020E84C
:100BB00030E00CE010E0E0EEEE2EE7E0FE2E0E94CA
:100BC000611C80EE93E061E00E94521A80EE93E097
:100BD0006FE178EF0E94581A80EE93E060E070E0D9
:100BE00046E950E00E944C1A80EE93E061E00E94DA
:100BF000521A80EE93E0BE010E94EB15DF91CF9177
:100C00001F910F91FF90EF90089580E092E00E9475
:100C1000BF050895AB01BC0188E796E02AE030E00B
:100C20000E9489150895BC0188E796E00E94E815A6
:100C300008954F925F927F928F929F92AF92BF9250
:100C4000CF92DF92EF92FF920F931F93DF93CF9398
:100C5000CDB7DEB728970FB6F894DEBF0FBECDBF75
:100C60004DB65EB680910C04882311F4772404C03D
:100C700010920C04772473941A8219821C821B82AE
:100C800090917D0380912E049817F1F00E94890ABB
:100C90004091830350918403569547958091330486
:100CA00090913404209185033091860336952795E1
:100CB0006091350470913604621B730B841B950B95
:100CC0000E94DC0877247394CE010196BE016D5F0B
:100CD0007F4F0E94F004D82E89819A81892B29F4B4
:100CE0008B819C81892B09F457C0E0902F04F090F0
:100CF00030040091310410913204CE010596BE01FA
:100D0000695F7F4F0E94C008882309F445C08D8128
:100D10009E818A30910548F4E0902F04F0903004D1
:100D200020EE3FEFE20EF31E0DC08637910510F462
:100D300020E009C0E0902F04F090300480E290E0C1
:100D4000E80EF91E21E08F8198858A30910538F4EC
:100D50000091310410913204005210400CC08637CB
:100D6000910538F00091310410913204005E1F4F5C
:100D700002C0222339F0C701B8010E94DC087724A1
:100D800073940AC00E940F096B817C8189819A81CA
:100D90000E94910B0E947B09DD2009F4C2C081E012
:100DA00092E00E94130660913B0470913C04809194
:100DB0003D0490913E040E940A0681E192E00E9467
:100DC0001306609137047091380480913904909132
:100DD0003A040E940A0683E192E00E941306009101
:100DE0003704B09038049090390480903A04109100
:100DF0003B04F0903C04D0903D04C0903E048091B0
:100E00000D0490910E04892BD9F485E192E00E94A3
:100E1000130610931304F0921404D0921504C09298
:100E2000160400930F04B092100490921104809263
:100E3000120481E090E090930E0480930D0471C041
:100E400082E292E00E941306E12E10931B04F092BE
:100E50001C04D0921D04C0921E04A02E00931704FF
:100E6000B09218049092190480921A0410920E0401
:100E700010920D0420910F04309110044091110440
:100E80005091120460911304709114048091150420
:100E900090911604C92CD82C00911D0410911E04A9
:100EA0000E94A10BAC0118161906BCF51DB70EB7B0
:100EB000F3E0880F991FFA95E1F72DB73EB7281B8D
:100EC000390B0FB6F8943EBF0FBE2DBF8DB79EB73E
:100ED0000196DC01FC0160E070E010821182128258
:100EE000138214821582168217826F5F7F4F3896A5
:100EF0006417750791F7CD010E94B60B97FD04C0EA
:100F00008DE292E00E941306812F902F9C010FB674
:100F1000F8943EBF0FBE2DBF04C080E492E00E9453
:100F20001306772031F00E944C090E947B090E9431
:100F3000050680910D0490910E04892B19F48BE421
:100F400092E002C081E592E00E94BF050FB6F894DE
:100F50005EBE0FBE4DBE28960FB6F894DEBF0FBE24
:100F6000CDBFCF91DF911F910F91FF90EF90DF9058
:100F7000CF90BF90AF909F908F907F905F904F9059
:100F80000895CF92DF92EF92FF920F931F93CF932A
:100F9000DF9388E796E040E855E260E070E00E9469
:100FA000561288E796E065E572E00E94EB1588E747
:100FB00096E00E9436130E949B050E9492050E94B3
:100FC0007B050E948308C0902E04CC2DD0E034E035
:100FD000CC0FDD1F3A95E1F72DE1C22E23E0D22E92
:100FE000CC0EDD1EFE01EF5DFC4FD6011C966D910F
:100FF0007D918D919C911F972081318142815381F8
:10100000620F731F841F951F22E030E040E050E024
:101010000E94263579018A01CB5DDC4F6881798198
:101020008A819B81F6012081318142815381620F47
:10103000731F841F951F22E030E040E050E00E94C3
:101040002635C801B7010E942E0A80918303909132
:1010500084039695879540912F04509130046091B8
:1010600085037091860376956795209131043091C0
:101070003204620F731F840F951F0E94410B81E0A1
:1010800080930C0482E060E00E94170F82E061E030
:101090000E94CA0F83E060E00E94170F83E061E0C6
:1010A0000E94CA0F81E067EA74E042E050E00E94CB
:1010B000CE0B80E06EE574E042E050E00E94CE0B83
:1010C00088E796E061E672E00E94E8156DB77EB7AA
:1010D0008091460990914709009721F48091D502AB
:1010E0009091D602681B790B88E796E04AE050E0C1
:1010F0000E94C915DF91CF911F910F91FF90EF9042
:10110000DF90CF9008951092370410923804109217
:10111000390410923A0410923B0410923C0410924D
:101120003D0410923E041092340410923304109245
:101130003604109235041092300410922F0410924D
:1011400032041092310480917D0380932E0408951F
:1011500080917D03853028F480917D038F5F80939B
:101160007D0380917D03089580917D03882329F07C
:1011700080917D03815080937D0380917D0308954C
:10118000FC01DB01809133049091340420912F0401
:1011900030913004821B930B9183808380913504BE
:1011A000909136042091310430913204821B930BCC
:1011B0008D939C9381E0089597FF03C0E0E0F0E0F9
:1011C00010C0E0912E04F0E0EE0FFF1FEF51FD4F35
:1011D0000190F081E02DE058F0408E179F0708F451
:1011E000FC01F0933004E0932F0477FF03C060E02C
:1011F00070E010C0E0912E04F0E0EE0FFF1FE3510D
:10120000FD4F0190F081E02DE05AF040E617F7071E
:1012100008F4BF0170933204609331040895AF92D3
:10122000BF92CF92DF92EF92FF920F931F93409164
:101230003304509134044250504020913504309191
:1012400036042250304080912E0466E0869FC00113
:10125000112460912F04709130048A01061B170B32
:1012600060913104709132047901E61AF70A8750CF
:101270009D4F60EE73E0F5E0CF2ED12CE5E0AE2E71
:10128000B12C0E94CE301F910F91FF90EF90DF9014
:10129000CF90BF90AF900895AF92BF92CF92DF9260
:1012A000EF92FF920F931F9380912E0426E0829F6E
:1012B000C001112440912F04509130042091310439
:1012C0003091320487509D4F60EE73E000E010E0F3
:1012D000EE24FF24B0E8CB2ED12CA0EAAA2EB12C0C
:1012E0000E94CE301F910F91FF90EF90DF90CF9032
:1012F000BF90AF9008950F931F9360913304709146
:10130000340480912F0490913004681B790B409134
:101310003504509136048091310490913204481B79
:10132000590B80EE93E022E030E000E018EF0E94DD
:1013300049171F910F910895AF92BF92CF92DF92FC
:10134000EF92FF920F931F935A016B01A82FBB27B7
:10135000A7FDB09500D00F926DE173E0FD0184E030
:10136000EE0FFF1F8A95E1F7E60FF71F208131810D
:1013700042815381AA0FBB1FCD01019613E0880F54
:10138000991F1A95E1F7680F791FFB01E080F18042
:1013900002811381A351BD4F8D919C91A0E0B0E0DB
:1013A000EDB7FEB781839283A383B483C601B501F1
:1013B000AA24BB2465010E94FE150F900F900F9088
:1013C0000F901F910F91FF90EF90DF90CF90BF9003
:1013D000AF900895AF92BF92CF92DF92EF92FF92BB
:1013E0000F931F935A016B01A82FBB27A7FDB09540
:1013F00000D00F92FD0104E0EE0FFF1F0A95E1F708
:101400008DE193E0E80FF91F2481358146815781F2
:10141000E484F58406851785AA0FBB1FAF51BD4F25
:101420008D919C91A0E0B0E0EDB7FEB781839283EF
:10143000A383B483C601B501AA24BB2465010E941D
:10144000FE150F900F900F900F901F910F91FF902E
:10145000EF90DF90CF90BF90AF900895AF92BF9282
:10146000CF92DF92EF92FF920F931F937B018C013B
:1014700059016A0180912E04B801A7010E94EA096E
:101480007093300460932F0480912E04B601A5015F
:101490000E949C0920912F043091300437FF03C033
:1014A000E0E0F0E010C0E0912E04F0E0EE0FFF1F4E
:1014B000EF51FD4F0190F081E02DE058F0402E17E4
:1014C0003F0708F4F901F0933004E0932F0477FF0D
:1014D00003C060E070E010C0E0912E04F0E0EE0F79
:1014E000FF1FE351FD4F0190F081E02DE05AF040E5
:1014F000E617F70708F4BF017093320460933104D4
:101500001F910F91FF90EF90DF90CF90BF90AF9021
:10151000089580917D0380932E044091370450916B
:1015200038046091390470913A040E94EA0970937A
:1015300034046093330440913B0450913C04609127
:101540003D0470913E0480912E040E949C0970938A
:1015500036046093350480912E040895AF92BF92B3
:10156000CF92DF92EF92FF920F931F93A82FBB278A
:10157000A7FDB09500D00F92CD01880F991FFC01F7
:10158000E351FD4FE080F18000E010E0EDE1F3E099
:1015900034E0AA0FBB1F3A95E1F7AE0FBF1FAD9025
:1015A000BD90CD90DC90019623E0880F991F2A957D
:1015B000E1F7E80FF91F80819181A281B381EDB736
:1015C000FEB781839283A383B483CB01BA0120E069
:1015D00030E040E050E00E94FE150F900F900F9019
:1015E0000F901F910F91FF90EF90DF90CF90BF90E1
:1015F000AF900895AF92BF92CF92DF92EF92FF9299
:101600000F931F93992787FD909500D00F92FC01AF
:10161000EE0FFF1FEF51FD4FE080F18000E010E082
:10162000B4E0880F991FBA95E1F7EDE1F3E0DF012F
:10163000A80FB91F1496AD90BD90CD90DC90179770
:10164000E80FF91F84859585A685B785EDB7FEB7A8
:1016500081839283A383B483CB01BA0120E030E07D
:1016600040E050E00E94FE150F900F900F900F90F9
:101670001F910F91FF90EF90DF90CF90BF90AF90B0
:10168000089597FF03C080E090E00EC0E0912E0423
:10169000F0E0EE0FFF1FEF51FD4F0190F081E02DC4
:1016A000E817F90708F4CF019093340480933304CA
:1016B00077FF03C060E070E00EC0E0912E04F0E020
:1016C000EE0FFF1FE351FD4F0190F081E02DE61773
:1016D000F70708F4BF017093360460933504AC013A
:1016E00060E070E080912E040E94FA0A6093370453
:1016F000709338048093390490933A0440913504F0
:101700005091360460E070E080912E040E94AE0A91
:1017100060933B0470933C0480933D0490933E049B
:101720000895409133045091340420913504309150
:101730003604260F371F840F951FB9010E94410BF5
:101740000895DF93CF93CDB7DEB760970FB6F894C7
:10175000DEBF0FBECDBF88E090E060960FB6F89474
:10176000DEBF0FBECDBFCF91DF910895FC0180E0B9
:1017700090E0A0E0B0E00CC084839583A683B7839B
:1017800080839183A283B38338960196A11DB11DF6
:10179000861797078CF380E090E00895883008F072
:1017A00078C0E82FF0E0EE0FFF1FE15CFB4F718384
:1017B00060838330D9F0843030F4813009F444C040
:1017C000823060F439C0853051F18530D8F08630F0
:1017D00009F446C0873009F05CC04FC080916900B1
:1017E0008C7F842B80936900E89A0895809169002A
:1017F000440F551F440F551F837F842B809369002E
:10180000E99A08958091690074E0440F551F7A9514
:10181000E1F78F7C842B80936900EA9A0895809188
:10182000690066E0440F551F6A95E1F78F73842BBA
:1018300080936900EB9A089580916A008C7F842BD5
:1018400080936A00EC9A089580916A00440F551FB6
:10185000440F551F837F842B80936A00ED9A08956F
:1018600080916A0024E0440F551F2A95E1F78F7C90
:10187000842B80936A00EE9A089580916A0096E026
:10188000440F551F9A95E1F78F73842B80936A005C
:10189000EF9A08951F920F920FB60F920BB60F9208
:1018A00011242F933F934F935F936F937F938F9365
:1018B0009F93AF93BF93EF93FF93809143049091D5
:1018C0004404892B29F0E0914304F09144041995D4
:1018D000FF91EF91BF91AF919F918F917F916F9108
:1018E0005F914F913F912F910F900BBE0F900FBEC4
:1018F0000F901F9018951F920F920FB60F920BB674
:101900000F9211242F933F934F935F936F937F9385
:101910008F939F93AF93BF93EF93FF938091450471
:1019200090914604892B29F0E0914504F0914604FA
:101930001995FF91EF91BF91AF919F918F917F91F9
:101940006F915F914F913F912F910F900BBE0F9030
:101950000FBE0F901F9018951F920F920FB60F9207
:101960000BB60F9211242F933F934F935F936F9376
:101970007F938F939F93AF93BF93EF93FF93809148
:10198000470490914804892B29F0E0914704F09195
:1019900048041995FF91EF91BF91AF919F918F915D
:1019A0007F916F915F914F913F912F910F900BBE5F
:1019B0000F900FBE0F901F9018951F920F920FB6A9
:1019C0000F920BB60F9211242F933F934F935F9377
:1019D0006F937F938F939F93AF93BF93EF93FF93F7
:1019E0008091490490914A04892B29F0E09149049F
:1019F000F0914A041995FF91EF91BF91AF919F919A
:101A00008F917F916F915F914F913F912F910F90A7
:101A10000BBE0F900FBE0F901F9018951F920F9244
:101A20000FB60F920BB60F9211242F933F934F9343
:101A30005F936F937F938F939F93AF93BF93EF9336
:101A4000FF9380913F0490914004892B29F0E0910D
:101A50003F04F09140041995FF91EF91BF91AF9130
:101A60009F918F917F916F915F914F913F912F91B6
:101A70000F900BBE0F900FBE0F901F9018951F92E6
:101A80000F920FB60F920BB60F9211242F933F9324
:101A90004F935F936F937F938F939F93AF93BF9376
:101AA000EF93FF938091410490914204892B29F098
:101AB000E0914104F09142041995FF91EF91BF919B
:101AC000AF919F918F917F916F915F914F913F91D6
:101AD0002F910F900BBE0F900FBE0F901F90189577
:101AE0001F920F920FB60F920BB60F9211242F93E5
:101AF0003F934F935F936F937F938F939F93AF9396
:101B0000BF93EF93FF9380914B0490914C04892BEA
:101B100029F0E0914B04F0914C041995FF91EF915D
:101B2000BF91AF919F918F917F916F915F914F91F5
:101B30003F912F910F900BBE0F900FBE0F901F90F3
:101B400018951F920F920FB60F920BB60F92112499
:101B50002F933F934F935F936F937F938F939F93B5
:101B6000AF93BF93EF93FF9380914D0490914E04F8
:101B7000892B29F0E0914D04F0914E041995FF91C5
:101B8000EF91BF91AF919F918F917F916F915F91F5
:101B90004F913F912F910F900BBE0F900FBE0F9062
:101BA0001F901895382F863308F0365320917B000C
:101BB000832F86958695869590E08170907043E09E
:101BC000880F991F4A95E1F7277F282B20937B00E8
:101BD000377080917E038295880F880F807C832BDD
:101BE00080937C0080917A00806480937A00809159
:101BF0007A0086FDFCCF2091780040917900942FE7
:101C000080E030E0282B392BC90108951F920F92F4
:101C10000FB60F9211242F933F938F939F93AF93FF
:101C2000BF938091530490915404A0915504B091B6
:101C30005604309157040196A11DB11D232F2D5F2D
:101C40002D3720F02D570196A11DB11D209357046B
:101C50008093530490935404A0935504B093560476
:101C600080914F0490915004A0915104B09152047E
:101C70000196A11DB11D80934F0490935004A09331
:101C80005104B0935204BF91AF919F918F913F91B6
:101C90002F910F900FBE0F901F9018958FB7F8944B
:101CA00020915304309154044091550450915604AE
:101CB0008FBFB901CA0108959B01AC017FB7F894A9
:101CC00080914F0490915004A0915104B09152041E
:101CD00066B5A89B05C06F3F19F00196A11DB11D07
:101CE0007FBFBA2FA92F982F8827860F911DA11D7E
:101CF000B11D62E0880F991FAA1FBB1F6A95D1F71B
:101D0000BC012DC0FFB7F89480914F04909150040E
:101D1000A0915104B0915204E6B5A89B05C0EF3FD5
:101D200019F00196A11DB11DFFBFBA2FA92F982F41
:101D300088278E0F911DA11DB11DE2E0880F991F0C
:101D4000AA1FBB1FEA95D1F7861B970B885E9340AD
:101D5000C8F2215030404040504068517C4F21151E
:101D600031054105510571F60895789484B5826076
:101D700084BD84B5816084BD85B5826085BD85B52F
:101D8000816085BDEEE6F0E0808181608083E1E8DE
:101D9000F0E0108280818260808380818160808316
:101DA000E0E8F0E0808181608083E1EBF0E0808119
:101DB00084608083E0EBF0E0808181608083E1E9F2
:101DC000F0E0808182608083808181608083E0E9AF
:101DD000F0E0808181608083E1EAF0E080818260D0
:101DE0008083808181608083E0EAF0E0808181608F
:101DF0008083E1E2F1E08081826080838081816084
:101E00008083E0E2F1E0808181608083EAE7F0E0B6
:101E10008081846080838081826080838081816012
:101E200080838081806880831092C1000895CF9361
:101E3000DF93482F50E0CA0188589E4FFC0134912F
:101E40004E5C5E4FFA018491882369F190E0880F1F
:101E5000991FFC01EC51FF4FA591B491FC01E25098
:101E6000FF4FC591D491662351F42FB7F8948C910C
:101E7000932F909589238C93888189230BC062309E
:101E800061F42FB7F8948C91932F909589238C93BC
:101E90008881832B88832FBF06C09FB7F8948C91CD
:101EA000832B8C939FBFDF91CF910895893009F4E4
:101EB00049C08A30A0F4843051F1853040F482303A
:101EC00079F1833000F5813009F063C026C0873096
:101ED00079F1883098F5863009F05BC025C08D30E7
:101EE00009F442C08E3028F48B30B1F18C30C0F54B
:101EF0002DC0803109F442C0813109F445C08F30D2
:101F000009F047C037C0809180008F7703C080916F
:101F100080008F7D80938000089584B58F7702C004
:101F200084B58F7D84BD08958091B0008F7703C004
:101F30008091B0008F7D8093B000089580919000D3
:101F40008F7707C0809190008F7D03C080919000B3
:101F5000877F8093900008958091A0008F7707C0BD
:101F60008091A0008F7D03C08091A000877F809327
:101F7000A0000895809120018F7703C080912001F7
:101F80008F7D80932001089580912001877F809329
:101F900020010895FF920F931F93F62E482F50E0D3
:101FA000CA0182549E4FFC012491CA0188589E4F59
:101FB000FC0114914E5C5E4FFA0104910023C9F0BC
:101FC000222319F0822F0E94560FE02FF0E0EE0F2F
:101FD000FF1FE250FF4FA591B4919FB7F894FF20E7
:101FE00021F48C911095812302C08C91812B8C93CC
:101FF0009FBF1F910F91FF9008950F931F93482F3C
:1020000050E0CA0182549E4FFC012491CA018858B5
:102010009E4FFC0104914E5C5E4FFA011491112316
:1020200019F420E030E015C0222319F0822F0E941D
:10203000560F812F90E0880F991F885E9E4FFC01FC
:10204000A591B4918C9120E030E0802311F021E043
:1020500030E0C9011F910F91089508951F920F92CA
:102060000FB60F920BB60F9211242F933F934F93FD
:102070008F939F93EF93FF934091C6002091980414
:10208000309199042F5F3F4F2F73307080919A04E5
:1020900090919B042817390759F0E0919804F0912A
:1020A0009904E85AFB4F4083309399042093980495
:1020B000FF91EF919F918F914F913F912F910F90B1
:1020C0000BBE0F900FBE0F901F90189508951F9292
:1020D0000F920FB60F920BB60F9211242F933F93CE
:1020E0004F938F939F93EF93FF934091CE00209156
:1020F0002005309121052F5F3F4F2F733070809165
:102100002205909123052817390759F0E091200501
:10211000F0912105E052FB4F40833093210520933D
:102120002005FF91EF919F918F914F913F912F91BA
:102130000F900BBE0F900FBE0F901F901895089533
:102140001F920F920FB60F920BB60F9211242F937E
:102150003F934F938F939F93EF93FF934091D600BC
:102160002091A8053091A9052F5F3F4F2F73307044
:102170008091AA059091AB052817390759F0E09195
:10218000A805F091A905E859FA4F40833093A905B5
:102190002093A805FF91EF919F918F914F913F91CF
:1021A0002F910F900BBE0F900FBE0F901F901895A0
:1021B00008951F920F920FB60F920BB60F92112433
:1021C0002F933F934F938F939F93EF93FF93409160
:1021D000360120913006309131062F5F3F4F2F732B
:1021E000307080913206909133062817390759F0E4
:1021F000E0913006F0913106E051FA4F4083309380
:10220000310620933006FF91EF919F918F914F916E
:102210003F912F910F900BBE0F900FBE0F901F900C
:102220001895E0918406F0918506E05CFF4F81915E
:10223000919120813181821B930B8F739070892B38
:1022400011F00E942D10E091A306F091A406E05C2D
:10225000FF4F8191919120813181821B930B8F736C
:102260009070892B11F00E946610E091C206F091E7
:10227000C306E05CFF4F8191919120813181821BE7
:10228000930B8F739070892B11F00E949F10E09137
:10229000E106F091E206E05CFF4F8191919120818F
:1022A0003181821B930B8F739070892B11F00E94E8
:1022B000D81008951F920F920FB60F920BB60F927F
:1022C00011242F933F938F939F93EF93FF9320912C
:1022D000DC043091DD048091DE049091DF04281746
:1022E000390731F48091C1008F7D8093C10014C003
:1022F000E091DE04F091DF04E456FB4F20818091F1
:10230000DE049091DF0401968F7390709093DF0448
:102310008093DE042093C600FF91EF919F918F91EF
:102320003F912F910F900BBE0F900FBE0F901F90FB
:1023300018951F920F920FB60F920BB60F921124A1
:102340002F933F938F939F93EF93FF932091640577
:1023500030916505809166059091670528173907CA
:1023600031F48091C9008F7D8093C90014C0E09141
:102370006605F0916705EC5DFA4F20818091660556
:102380009091670501968F73907090936705809385
:1023900066052093CE00FF91EF919F918F913F9121
:1023A0002F910F900BBE0F900FBE0F901F9018959E
:1023B0001F920F920FB60F920BB60F9211242F930C
:1023C0003F938F939F93EF93FF932091EC05309170
:1023D000ED058091EE059091EF052817390731F44E
:1023E0008091D1008F7D8093D10014C0E091EE05E3
:1023F000F091EF05E455FA4F20818091EE05909120
:10240000EF0501968F7390709093EF058093EE0522
:102410002093D600FF91EF919F918F913F912F9143
:102420000F900BBE0F900FBE0F901F9018951F922C
:102430000F920FB60F920BB60F9211242F933F936A
:102440008F939F93EF93FF932091740630917506BD
:1024500080917606909177062817390731F480919C
:1024600031018F7D8093310114C0E0917606F091A7
:102470007706EC5CF94F2081809176069091770683
:1024800001968F73907090937706809376062093D1
:102490003601FF91EF919F918F913F912F910F9076
:1024A0000BBE0F900FBE0F901F901895AF92BF926A
:1024B000DF92EF92FF920F931F93CF93DF93EC0184
:1024C0007A018B01DD24403081EE580780E06807F7
:1024D00080E0780711F0DD24D39491E0A92EB12C8F
:1024E000EC89FD89DD2069F0C5010E8C02C0880FE2
:1024F000991F0A94E2F7808360E079E08DE390E031
:1025000005C0108260E874E88EE190E0A8019701B0
:102510000E94043521503040404050405695479528
:102520003795279580E12030380720F0DD2011F025
:10253000DD24D6CFE889F9893083EA89FB892083B5
:10254000EE89FF89408121E030E0C9010A8C02C098
:10255000880F991F0A94E2F7482B4083EE89FF8980
:102560004081C9010B8C02C0880F991F0A94E2F7C1
:10257000482B4083EE89FF894081C9010C8C02C041
:10258000880F991F0A94E2F7482B4083EE89FF8950
:1025900080810D8C02C0220F331F0A94E2F7209530
:1025A00028232083DF91CF911F910F91FF90EF900F
:1025B000DF90BF90AF900895DC011C96ED91FC91E7
:1025C0001D97E05CFF4F2191319180819181281B03
:1025D000390B2F733070C9010895DC011C96ED9101
:1025E000FC911D97E05CFF4F20813181E054F04069
:1025F000DF01AE5BBF4F8D919C9111972817390772
:1026000019F42FEF3FEF07C08D919C91E80FF91F50
:102610008081282F30E0C9010895DC011C96ED91DE
:10262000FC911D97E05CFF4F20813181E054F04028
:10263000DF01AE5BBF4F8D919C9111972817390731
:1026400019F42FEF3FEF10C08D919C911197E80F77
:10265000F91F20818D919C91119701968F73907035
:1026600011969C938E9330E0C9010895FC018685F4
:102670009785DC01A05CBF4FFC01EE5BFF4F2D9105
:102680003C9111978081918128173907C1F70895EE
:10269000CF93DF93EC01EE85FF85E05CFF4F208157
:1026A0003181E054F0402F5F3F4F2F733070DF01D6
:1026B000AE5BBF4F8D919C91119728173907D1F3CD
:1026C000E05CFF4F80819181E054F040E80FF91FFA
:1026D0006083EE85FF85E05CFF4F31832083EE89C8
:1026E000FF89208181E090E00D8C02C0880F991F46
:1026F0000A94E2F7282B208381E090E0DF91CF91CC
:1027000008951F9310927B0610927A0628EE33E00C
:1027100040E050E020937C0630937D0640937E0697
:1027200050937F066BE873E07093790660937806A8
:1027300088E594E090938506809384068CE994E084
:10274000909387068093860685EC90E090938906A7
:102750008093880684EC90E090938B0680938A06A1
:1027600080EC90E090938D0680938C0681EC90E055
:1027700090938F0680938E0686EC90E0909391065E
:102780008093900614E010939206B3E0B093930602
:10279000A7E0A0939406F5E0F0939506E1E0E093BE
:1027A000960610929A061092990620939B063093F3
:1027B0009C0640939D0650939E06709398066093E6
:1027C000970680EE94E09093A4068093A30684E29B
:1027D00095E09093A6068093A5068DEC90E09093EB
:1027E000A8068093A7068CEC90E09093AA068093AD
:1027F000A90688EC90E09093AC068093AB0689EC38
:1028000090E09093AE068093AD068EEC90E09093AE
:10281000B0068093AF061093B106B093B206A093B2
:10282000B306F093B406E093B5061092B906109281
:10283000B8062093BA063093BB064093BC0650936B
:10284000BD067093B7066093B60688E695E0909350
:10285000C3068093C2068CEA95E09093C5068093E8
:10286000C40685ED90E09093C7068093C60684ED7C
:1028700090E09093C9068093C80680ED90E0909315
:10288000CB068093CA0681ED90E09093CD068093AD
:10289000CC0686ED90E09093CF068093CE06109301
:1028A000D006B093D106A093D206F093D306E0935E
:1028B000D4061092D8061092D7062093D9063093EA
:1028C000DA064093DB065093DC067093D6066093DD
:1028D000D50680EF95E09093E2068093E10684E3CD
:1028E00096E09093E4068093E30685E391E090936D
:1028F000E6068093E50684E391E09093E8068093F2
:10290000E70680E391E09093EA068093E90681E38D
:1029100091E09093EC068093EB0686E391E0909330
:10292000EE068093ED061093EF06B093F006A093A9
:10293000F106F093F206E093F3061F910895CF930A
:10294000DF930E94B50E0E94C107C1E1D1E10E9450
:1029500019062097E1F30E941111F9CF0895CF9243
:10296000DF92EF92FF920F931F93CF93DF937C013F
:102970006B018A01C0E0D0E00FC0D6016D916D01FE
:10298000D701ED91FC910190F081E02DC7011995DF
:10299000C80FD91F015010400115110571F7CE0164
:1029A000DF91CF911F910F91FF90EF90DF90CF902B
:1029B0000895EF92FF920F931F938C01DC01ED912C
:1029C000FC910190F081E02D6DE019957C01D8011A
:1029D000ED91FC910190F081E02DC8016AE019951C
:1029E0009C012E0D3F1DC9011F910F91FF90EF908B
:1029F0000895EF92FF920F931F937C01DC01ED91FC
:102A0000FC910190F081E02D19958C01C7010E9485
:102A1000D914080F191FC8011F910F91FF90EF9053
:102A20000895CF93DF93DB010D900020E9F7119714
:102A3000A61BB70BEC01E881F9810280F381E02D40
:102A4000AD011995DF91CF9108954F925F927F92DA
:102A50008F929F92AF92BF92CF92DF92EF92FF92AE
:102A60000F931F93DF93CF93CDB7DEB7A1970FB628
:102A7000F894DEBF0FBECDBF2C01742ECB012230E7
:102A800008F42AE019A231E2C32ED12CCC0EDD1EAF
:102A9000822E9924AA24BB24672D752FA5019401A9
:102AA0000E94043579018A01C801B701A50194018A
:102AB0000E94BE34472D461B0894C108D1084A30F5
:102AC00014F4405D01C0495CF6014083E114F10457
:102AD0000105110521F07E2C5F2DC801DDCFC2015B
:102AE000B6010E941115A1960FB6F894DEBF0FBE75
:102AF000CDBFCF91DF911F910F91FF90EF90DF90AD
:102B0000CF90BF90AF909F908F907F905F904F90AD
:102B10000895CF92DF92EF92FF920F931F93CF937E
:102B2000DF93EC016A017B012115310541F4E88155
:102B3000F9810190F081E02D642F19951FC02A3092
:102B40003105D1F477FF17C0E881F9810190F08158
:102B5000E02D6DE219958C0144275527BA014C19D7
:102B60005D096E097F09CE012AE00E9425159801B2
:102B7000280F391F04C02AE00E9425159C01C901B5
:102B8000DF91CF911F910F91FF90EF90DF90CF9049
:102B90000895CF92DF92EF92FF920F931F936C01F3
:102BA0007B019A010027F7FC0095102FB801A701BF
:102BB0000E9489158C01C6010E94D914080F191FA3
:102BC000C8011F910F91FF90EF90DF90CF90089573
:102BD0000E9411150895EF92FF920F931F937C01AD
:102BE0000E9411158C01C7010E94D914080F191FEA
:102BF000C8011F910F91FF90EF9008952F923F927F
:102C00004F925F926F927F928F929F92AF92BF92FC
:102C1000CF92DF92EF92FF920F931F93DF93CF93A8
:102C2000CDB7DEB73B014C0119012A016E897F89BE
:102C3000888D998D6A197B098C099D09621A730A1E
:102C4000840A950AA40193010E94BE34E218F30895
:102C500004091509A80197010E9426352A0D3B1D7C
:102C60004C1D5D1DB901CA01CF91DF911F910F91DC
:102C7000FF90EF90DF90CF90BF90AF909F908F909C
:102C80007F906F905F904F903F902F900895FC0140
:102C9000138212828BE993E091838083758364832E
:102CA000578346837187608753874287158A1586C5
:102CB00014861786168621E0248B8FEF9FEF938B67
:102CC000828B918B808B268B08952F923F924F920F
:102CD0005F926F927F928F929F92AF92BF92CF92AC
:102CE000DF92EF92FF920F931F93DF93CF93CDB7B5
:102CF000DEB72E970FB6F894DEBF0FBECDBF9E870E
:102D00008D871B015E834D83A701260171E0C72ECD
:102D1000D12CC21AD30AC901880F991F66277727B9
:102D2000681B790B7A8369836D807E8008946108C3
:102D3000710883E0882E912C8E0C9F1C790181E014
:102D400090E09C838B83AA24BB2410E0D801A1705F
:102D5000B070B887AF83FA013196FA87E987B80176
:102D6000627070707C876B8777C0D7FC0AC008944C
:102D7000E108F10889819A8102969A838983C80EB5
:102D8000D91E0894A11CB11CAB81BC811296BC83D6
:102D9000AB83EF81F885EF2B41F1AD85BE85ED91D9
:102DA000FC911197B501620D731D4D815E814E1925
:102DB0005F099701220F331F89859A85280F391FD4
:102DC0000084F185E02DCD0182011995AD85BE8588
:102DD000ED91FC911197B701620D731D0084F1858F
:102DE000E02DCD01A30194011995EB85FC85EF2B16
:102DF00041F1AD85BE85ED91FC911197B1016A1944
:102E00007B094D815E814E195F099701220F331FA7
:102E100089859A85280F391F0084F185E02DCD0121
:102E200082011995AD85BE85ED91FC911197B10197
:102E30006E197F090084F185E02DCD01A301940175
:102E40001995EB81FC81CE0EDF1E08946108710894
:102E500062E070E0860E971EAE14BF040CF485CFBE
:102E60002E960FB6F894DEBF0FBECDBFCF91DF9187
:102E70001F910F91FF90EF90DF90CF90BF90AF9098
:102E80009F908F907F906F905F904F903F902F908A
:102E900008956F927F928F929F92AF92BF92CF923E
:102EA000DF92EF92FF920F931F937C014B013A0147
:102EB00059016801DC01ED91FC91421B530B220F7B
:102EC000331F2F5F3F4F0084F185E02D1995C70117
:102ED000B401A301950103E0EE24FF240E946516CE
:102EE0001F910F91FF90EF90DF90CF90BF90AF9028
:102EF0009F908F907F906F9008952F923F924F9266
:102F00005F926F927F928F929F92AF92BF92CF9279
:102F1000DF92EF92FF920F931F93DF93CF9300D036
:102F20000F92CDB7DEB73C017C836B836A015901F8
:102F3000FA82E982222433249801241B350B37FFBF
:102F400003C0309521953F4FC5014B815C81841BA7
:102F5000950B97FF03C0909581959F4F821793071C
:102F60005CF481E0282E312CC601CB80DC809C8370
:102F70008B83C80185015C018B819C81A816B906F1
:102F800044F4C501AB80BC809C838B83C80186015F
:102F90006C012501AB81BC814A1A5B0A7801EC18EF
:102FA000FD08F7FE04C0F094E194F108F394C01614
:102FB000D10624F088248A94982C03C0B1E08B2E8B
:102FC000912CC20162E070E00E94F1348B0125C0B7
:102FD000D301ED91FC912114310441F00480F5817D
:102FE000E02DC301B6014B815C8107C00480F581EF
:102FF000E02DC3016B817C81A60129813A8119955D
:103000000E191F0917FF04C0C80CD91C040D151D8B
:10301000EB81FC813196FC83EB834B815C81A416B0
:10302000B506B4F60F900F900F900F90CF91DF91EF
:103030001F910F91FF90EF90DF90CF90BF90AF90D6
:103040009F908F907F906F905F904F903F902F90C8
:1030500008954F925F926F927F928F929F92AF925C
:10306000BF92CF92DF92EF92FF920F931F936C016A
:103070005B014A0139012801DC01ED91FC910284D8
:10308000F385E02D87011995D601ED91FC91A401FE
:1030900041505040440D551D0284F385E02DC6017A
:1030A000B50193011995D601ED91FC910084F1854C
:1030B000E02DC601B501A40192011995D601ED914B
:1030C000FC910894A108B108A60CB71C0084F185F6
:1030D000E02DC601B501A401920119951F910F9130
:1030E000FF90EF90DF90CF90BF90AF909F908F9028
:1030F0007F906F905F904F900895CF92DF92EF9204
:10310000FF920F931F93DC016B017801ED91FC910D
:103110008A0101501040020F131F0680F781E02D35
:10312000960119951F910F91FF90EF90DF90CF902E
:103130000895CF92DF92EF92FF920F931F93DC01DD
:103140006A01C9017801ED91FC9111979B01215011
:103150003040280F391F0680F781E02DCD01860110
:1031600019951F910F91FF90EF90DF90CF900895E8
:103170006F927F928F929F92AF92BF92CF92DF9287
:10318000EF92FF920F931F93CF93DF935C013A016D
:1031900069014801EB01C60ED71E0DC0D501ED91A6
:1031A000FC910084F185E02DC501BE01A3019401CD
:1031B000870119952196CC15DD0584F3DF91CF9118
:1031C0001F910F91FF90EF90DF90CF90BF90AF9045
:1031D0009F908F907F906F900895EF92FF920F9342
:1031E0001F93FC017B01A081B1812085318502857F
:1031F00013851E960D90BC91A02D60E070E040E01C
:1032000050E0FD0119951F910F91FF90EF900895E7
:103210002F923F924F925F926F927F928F929F92E6
:10322000AF92BF92CF92DF92EF92FF920F931F93D4
:10323000DF93CF93CDB7DEB72F970FB6F894DEBFED
:103240000FBECDBF5C015E834D8318870F83FA8666
:10325000E986CB86DC0118968D919C9119976817A9
:1032600079070CF0A4C01A968D919C911B97481772
:1032700059070CF09CC0EC2DF0E0FF87EE87CF01E2
:10328000880F991F8E0F9F1F880F991F860F971FFA
:10329000181619060CF08BC0CF01F3E0880F991FA8
:1032A000FA95E1F7840F951F181619060CF07FC0E8
:1032B00085E0289FA00111245A8349832B011B011B
:1032C0001C825C81553011F480E005C0E981FA81EF
:1032D000EC5FFD4F84912C863D866D807E8043019E
:1032E0001B82C82EDD2480FF1CC0D501ED91FC910E
:1032F000BB85B13049F40480F581E02DC501B201F0
:10330000A3012F81388522C00684F785E02DC501F1
:103310006C857D85A4012E853F858901EF80F88429
:1033200023C0E985FA852F813885E217F307E9F094
:10333000D501ED91FC91BB85B13051F40480F5814C
:10334000E02DC501B201A30129853A8519950DC06B
:103350000684F785E02DC5016C857D85A4012E8549
:103360003F858901E984FA841995EB81EF5FEB834E
:103370002E853F85820E931E0894611C711CE830D7
:1033800021F0D594C7948C2DACCF3C813F5F3C831A
:103390004E855F85240E351E0894411C511C898181
:1033A0009A8101969A838983363009F08ACF2F96C5
:1033B0000FB6F894DEBF0FBECDBFCF91DF911F9146
:1033C0000F91FF90EF90DF90CF90BF90AF909F90C4
:1033D0008F907F906F905F904F903F902F900895C7
:1033E000CF92EF92FF920F931F93CF93DF93EC0155
:1033F000262F6A3061F42C8930E003E0220F331F5E
:103400000A95E1F78E859F85820F931F37C06D3037
:10341000C9F16C857D854E855F8508891989EA88A3
:10342000FB88CC880E9408192C8986E0289FB0016F
:1034300011248C859D85680F791F7D876C878E8907
:10344000882301F1422F50E08AEF9FEF9C01429FB9
:10345000C001439F900D529F900D112428853985FE
:10346000820F931F861797076CF413E0440F551FC4
:103470001A95E1F78E859F85840F951F9F878E870C
:103480001D861C8681E090E0DF91CF911F910F9106
:10349000FF90EF90CF900895FC0175876487578760
:1034A00046870895FC01662309F461E0648B089562
:1034B000FC01738B628B718B608B08950895DC0126
:1034C00058968C915897882329F06EBD0DB407FE4D
:1034D000FDCF089530E840E050E070E0832F90E0A9
:1034E000862397235996ED91FC915A9796962C91A5
:1034F0009697892B21F08081822B808304C0808164
:103500002095282320835B96ED91FC915C97808128
:1035100097969C919797892B80835B96ED91FC9170
:103520005C97908197968C9197978095892380835B
:1035300036954F5F5F4F4830510581F608950F93E0
:103540001F938C01DC015F96ED91FC919097908127
:1035500099968C9199978095892380835D96ED91BA
:10356000FC915E97908198968C91809589238083B9
:10357000C8010E945F1AD8015D96ED91FC915E979B
:10358000808198969C91892B80831F910F9108953B
:103590000F931F938C01DC015F96ED91FC91909746
:1035A000808199969C919997892B80835D96ED9166
:1035B000FC915E97908198968C9180958923808369
:1035C000C8010E945F1AD8015D96ED91FC915E974B
:1035D000808198969C91892B80831F910F910895EB
:1035E000CF92DF92EF92FF920F931F937C01162FE1
:1035F000C42ED22E6AE20E949F1AC70160E00E9488
:10360000C81AF70162A5610FC7010E94C81AC70155
:1036100060E00E94C81AF70162A56D0DC7010E9403
:10362000C81AC7016BE20E949F1AC70160E00E949E
:10363000C81AF70163A56C0DC7010E94C81AC7011B
:1036400060E00E94C81AF70163A5600FC7010E94DD
:10365000C81AC7016CE20E949F1A1F910F91FF9038
:10366000EF90DF90CF900895FF920F931F938C01FE
:10367000F62E672FDC015F96ED91FC91909780818B
:1036800099969C919997892B80835D96ED91FC91F9
:103690005E97908198968C91809589238083C8014C
:1036A0000E945F1AC8016F2D0E945F1AD8015D96B3
:1036B000ED91FC915E97808198969C91892B8083F7
:1036C0001F910F91FF900895FF920F931F93CF9337
:1036D000DF93EC01F22E132F77FD2EC0888599859C
:1036E000681779074CF557FD27C08A859B854817D1
:1036F000590714F5262F2F5F042F0F5FCE010E946C
:10370000F01AEF8DF8A1808199A5892B8083ED8D2A
:10371000FE8D908188A5809589238083CE01612FBD
:103720000E945F1ACE016F2D0E945F1AED8DFE8DF3
:10373000808198A5892B8083DF91CF911F910F9174
:10374000FF900895DF92EF92FF920F931F93CF9314
:10375000DF93EC01FB017901D02E888599856817EC
:103760007907D4F52A853B8542175307ACF5C70185
:10377000840F951F281739071CF47901E41AF50AFC
:10378000042F01500E0DCE016E2F2E2F0E94F01A25
:10379000EF8DF8A1808199A5892B8083ED8DFE8D19
:1037A000908188A580958923808308C0CE01612FF0
:1037B0000E945F1ACE016D2D0E945F1A0894E108E5
:1037C000F1088FEFE8168FEFF80681F7ED8DFE8D8B
:1037D000808198A5892B8083DF91CF911F910F91D4
:1037E000FF90EF90DF900895DF92EF92FF920F939A
:1037F0001F93CF93DF93EC01FA017901D02E288536
:10380000398562177307D4F58A859B854817590750
:10381000ACF5C701860F971F281739071CF47901EB
:10382000E61AF70A262F21502E0DCE014E2F0E2F0D
:103830000E94F01AEF8DF8A1808199A5892B8083D1
:10384000ED8DFE8D908188A580958923808308C0A9
:10385000CE01612F0E945F1ACE016D2D0E945F1A6A
:103860000894E108F1088FEFE8168FEFF80681F76A
:10387000ED8DFE8D808198A5892B8083DF91CF917E
:103880001F910F91FF90EF90DF900895EF92FF92BC
:103890000F931F93FC017B01A081B18120853185AD
:1038A000028513851E960D90BC91A02D60E070E0FE
:1038B00040E050E0FD0119951F910F91FF90EF90AE
:1038C0000895AF92BF92CF92DF92EF92FF920F9343
:1038D0001F93CF93DF936C015901E801DC01189627
:1038E0002D913C911997621773070CF057C01A96E7
:1038F000ED91FC911B974E175F070CF04FC0C5016F
:10390000860F971F281739071CF45901A61AB70A02
:10391000CE01840F951FE817F9071CF4EF01C41BB3
:10392000D50B262F21502A0D042F01500C0FC60154
:103930000E94F01AD6015F96ED91FC9190978081DC
:1039400099969C919997892B80835D96ED91FC9136
:103950005E97908198968C918095892380838E01C3
:103960000EC0C6016F2D0E945F1AC6016E2D0E9407
:103970005F1A21971C161D06A4F301501040101663
:10398000110614F4E501F6CFD6015D96ED91FC9198
:103990005E97808198969C91892B8083DF91CF914F
:1039A0001F910F91FF90EF90DF90CF90BF90AF905D
:1039B00008951F93CF93DF93EC01162F66E30E94C7
:1039C0009F1A13701D8B113081F0113028F01230C6
:1039D000A9F01330B1F523C08F89823019F4CE01DC
:1039E00060EC14C0CE0168EC11C08F89823019F4EC
:1039F000CE0160EA1CC0CE0168EA19C08F8982300E
:103A000019F4CE0160E002C0CE0168E00E94C81A3D
:103A100080E890E09987888780EA90E010C08F89DD
:103A2000823019F4CE0160E602C0CE0168E60E9441
:103A3000C81A80EA90E09987888780E890E09B87A1
:103A40008A87DF91CF911F910895662311F460E278
:103A500001C061E20E949F1A0895AF92BF92CF9277
:103A6000DF92EF92FF920F931F93CF93DF935C014E
:103A7000FB01EB012196D49031C08E010F5F1F4FE7
:103A8000FE016491C5010E949F1A78010894E11C0F
:103A9000F11CF801C4900C2D0F77E701102F08C01E
:103AA000FE012196E491C5016E2F0E94C81A1150A3
:103AB0001123B1F7E701C00FD11DC7FE0EC0FE01F3
:103AC0008491682F70E06F3F710511F464EF71E02D
:103AD000219680E090E00E945C0EDA94DD2069F689
:103AE000DF91CF911F910F91FF90EF90DF90CF90DA
:103AF000BF90AF9008950F931F93CF93DF93EC0186
:103B00008B011BA61AA68AA161E00E94170F89A14A
:103B100061E00E94170FE9A14E2F50E0FA01EE5C20
:103B2000FE4FE491F0E0EE0FFF1FE250FF4F859152
:103B300094919E8F8D8FEAA12E2F30E0F901EE5CDB
:103B4000FE4FE491F0E0EE0FFF1FE250FF4F859132
:103B5000949198A38F8F48585E4FFA01849188A75B
:103B600028583E4FF901849189A7888D882361F0F8
:103B70000E94AF3080E00E949E3081E00E94903031
:103B800080E00E9499303DC08DA161E00E94170F36
:103B90008CA161E00E94170FEDA14E2F50E0FA01B9
:103BA000EE5CFE4FE491F0E0EE0FFF1FE250FF4F9E
:103BB000A591B491BC8FAB8FECA12E2F30E0F90111
:103BC000EE5CFE4FE491F0E0EE0FFF1FE250FF4F7E
:103BD000859194919A8F898F48585E4FFA019491FC
:103BE0009FA328583E4FF90184918EA38C91909504
:103BF00098239C93E98DFA8D90818EA180958923DD
:103C00008083ED8DFE8D908188A5809589238083AA
:103C10008BA1882309F161E00E94170F8BA161E05D
:103C20000E94CA0F64EF71E080E090E00E945C0E99
:103C30008BA160E00E94CA0F64EF71E080E090E029
:103C40000E945C0E8BA161E00E94CA0F64EF71E0DC
:103C500080E090E00E945C0E0115110521F0CE017C
:103C6000B8010E942D1DDF91CF911F910F910895F2
:103C70001F93CF93DF93EC01162F6FEF76E00E9436
:103C80007B1D112351F4CE016AE377E00E942D1DC4
:103C900082E08AA781E08BA705C0CE0167E477E0C8
:103CA0000E942D1DCE0164E577E00E942D1D12308B
:103CB00041F4CE0166E30E949F1ACE0160EC0E949F
:103CC000C81A1F8BDF91CF911F910895DF92EF9259
:103CD000FF920F931F938C01F62EE42ED22E60E8F4
:103CE00070E040EA50E00E94471683EB93E0F80151
:103CF00091838083F1A2E2A2D3A281E0808F15A2FA
:103D000014A21F910F91FF90EF90DF90089582E031
:103D100090E0A0E0B0E08093F4069093F506A093C5
:103D2000F606B093F70610920B0710921507109243
:103D300014078BEC93E09093130780931207109273
:103D40001707109234071092350710923807109217
:103D50003A0708952F923F924F925F926F927F920F
:103D60008F929F92AF92BF92CF92DF92EF92FF928B
:103D70000F931F93DF93CF93CDB7DEB7C754D040D7
:103D80000FB6F894DEBF0FBECDBF582E492EFB01F3
:103D90003A01190180A191A1998B888B2BEC33E01A
:103DA0003F872E8782A18A8B83A18B8B84A195A1CB
:103DB000A6A1B7A18C8B9D8BAE8BBF8B80A591A547
:103DC000A2A5B3A5888F998FAA8FBB8F84A595A52F
:103DD000A6A5B7A58C8F9D8FAE8FBF8F80A988A316
:103DE00081A992A9A3A9B4A989A39AA3ABA3BCA3AF
:103DF00085A996A9A7A9B0AD8DA39EA3AFA3B8A787
:103E000081AD92AD9AA789A71EA61DA63CA72BA798
:103E100018AA7A018E01025F1F4F3BE2A32EB12C3C
:103E2000AC0EBD1E4E010894811C911C35C0D701FB
:103E30008C918F3221F40894E11CF11C2DC0422F8B
:103E40004E194D3008F04CE0C42EDD24C401B701FA
:103E5000A6010E94AF34F401EC0DFD1D1082C501D6
:103E60000E947C25C501B801A40121E00E94C42A5A
:103E7000882351F4E52DF42D138212828BEC93E00C
:103E800091838083158266C0EC0CFD1CC8010E94E2
:103E90007C25C50158018C01C7016FE270E00E94CA
:103EA000A4349C01009719F6E618F708F101F18295
:103EB000E082E52DF42DD80112968D919C911397F7
:103EC000938382838BEC93E09183808314968C910F
:103ED0001497848315968C911597858316962D914A
:103EE0003D914D915C911997268337834087518787
:103EF0001A962D913D914D915C911D9722873387A4
:103F0000448755871E962D913D914D915C91519717
:103F100026873787408B518B52968C915297828B94
:103F200053962D913D914D915C915697238B348BF7
:103F3000458B568B57962D913D914D915C915A979B
:103F4000278B308F418F528F5B968D919C915C9720
:103F5000948F838F852D942DC95BDF4F0FB6F89416
:103F6000DEBF0FBECDBFCF91DF911F910F91FF90AC
:103F7000EF90DF90CF90BF90AF909F908F907F9009
:103F80006F905F904F903F902F9008959F92AF92C7
:103F9000BF92CF92DF92EF92FF920F931F93DF9326
:103FA000CF93CDB7DEB7C657D0400FB6F894DEBF7B
:103FB0000FBECDBFC82E992E8A01D22E43E0A42E6B
:103FC000B12CAC0EBD1EC501A8019E012F5F3F4F55
:103FD0000E94AA1EE980FA80E00EF11EF70180819E
:103FE0004BEC53E02885882309F03FC08D819E81EA
:103FF0009BA38AA359A348A38F818CA32DA3898552
:104000009A85AB85BC858EA39FA3A8A7B9A78D85EC
:104010009E85AF85B8898AA79BA7ACA7BDA78989CC
:104020009A89AB89BC898EA79FA7A8ABB9AB8D89AC
:104030008AAB8E899F89A88DB98D8BAB9CABADABBC
:10404000BEAB8A8D9B8DAC8DBD8D8FAB98AFA9AF6C
:10405000BAAF8E8D9F8D9CAF8BAF8C2D992DBE01ED
:10406000605E7F4F4CEA52E09FC0FE01FF961182D6
:1040700010825EAF4DAFFE01EE5BFF4F1082222338
:10408000A9F02250CE01CD96223048F462E177E0CB
:10409000A7012D2D0E94C42A882381F407C0B501F1
:1040A000A7012D2D0E94C42A882329F48C2D992D37
:1040B0000E941C327BC0C5010E947C25F6E0DF22F5
:1040C00059F0FE01E05BFF4F4081518162817381B5
:1040D000CE01CD960E946C249E01265A3F4FFE01D0
:1040E000FF9680819181F901938382838BEC93E029
:1040F00091838083FE01EF5BFF4F8081F901848310
:10410000FE01EE5BFF4F8081F9018583FE01ED5BCF
:10411000FF4F80819181A281B381F90186839783CA
:10412000A087B187FE01E95BFF4F80819181A28169
:10413000B381F90182879387A487B587FE01E55B88
:10414000FF4F80819181A281B381F9018687978792
:10415000A08BB18BFE01E15BFF4F8081F901828B67
:10416000FE01E05BFF4F80819181A281B381F90163
:10417000838B948BA58BB68BFE01EC5AFF4F80810D
:104180009181A281B381F901878B908FA18FB28F2A
:10419000FE01E85AFF4F80819181F901948F838F4E
:1041A0008C2D992DB901A7010E9426338C2D992DB4
:1041B000CA58DF4F0FB6F894DEBF0FBECDBFCF9108
:1041C000DF911F910F91FF90EF90DF90CF90BF9004
:1041D000AF909F900895EF92FF920F931F93CF930C
:1041E000DF93EC01462F8C01055C1F4FC80161E095
:1041F0000E9458238823D1F0FC2EED2ECE01B80169
:1042000041E00E94652C882339F4CE01B80140E0DA
:104210000E94652C882351F0CE014E966F2D7E2D85
:104220000E94B227882319F081E001C080E0DF916D
:10423000CF911F910F91FF90EF900895FC0167308F
:1042400020F086E1858380E00895262F30E060FD30
:1042500002C0663019F48DB58E7F02C08DB58160C5
:104260008DBD8CB58C7F8CBD4CB522FD02C090E01D
:1042700001C092E036952795822F8170842B892B7F
:104280008CBD81E00895FF920F931F93CF93DF932E
:104290008B010E944E0EEB01FF24FA94FEBC0DB47C
:1042A00007FEFDCF8EB58F3F11F481E008C00E945C
:1042B0004E0E6C1B7D0B6017710780F380E0DF9161
:1042C000CF911F910F91FF900895FC01848160E0D0
:1042D0000E94CA0F0895FC01848161E00E94CA0F08
:1042E0000895DC016EBDFA0120E030E00DB407FE58
:1042F000FDCF80818EBD0DB407FEFDCF81818EBDC7
:104300002E5F3F4F329682E02030380779F70DB4A8
:1043100007FEFDCF8FEF8EBD0DB407FEFDCF8FEFF3
:104320008EBD0DB407FEFDCF8FEF8EBD0DB407FE21
:10433000FDCF8EB51A968C931A978F71853011F434
:1043400081E0089581E115968C931597CD010E9427
:104350006B2180E00895FF920F931F93CF93DF931B
:10436000EC010E944E0E8B01FF24FA9409C00E94BA
:104370004E0E601B710B6D52714010F08FE00DC03E
:10438000FEBC0DB407FEFDCF8EB58A878F3F79F353
:104390008E3F11F481E006C08DE08D83CE010E9436
:1043A0006B2180E0DF91CF911F910F91FF900895D5
:1043B000CF93DF93EC018E818823D1F08FEF8EBDF8
:1043C0002F8138854FEF04C00DB407FEFDCF4EBDE1
:1043D0002F5F3F4FC901019781509240A8F3388762
:1043E0002F830DB407FEFDCFCE010E946B211E82EC
:1043F000DF91CF910895DF92EF92FF920F931F9379
:10440000CF93DF93EC01D62E79018A010E94D82147
:10441000CE010E946521CE016CE271E00E94432131
:104420008D2D80648EBD0DB407FEFDCF28E130E0F8
:10443000D801C701022E04C0B695A7959795879518
:104440000A94D2F78EBD0DB407FEFDCF2850304040
:104450008FEF283F380761F7DD2011F485E906C0AA
:1044600088E0D81611F487E801C08FEF8EBD0DB437
:1044700007FEFDCF90E02FEF2EBD0DB407FEFDCF60
:104480008EB587FF02C09150B9F78A87DF91CF912F
:104490001F910F91FF90EF90DF900895CF92DF92E0
:1044A000EF92FF920F931F93CF93DF93EC017A016A
:1044B0008B016901411551056105710511F482E116
:1044C00037C08B85833039F029E0EE0CFF1C001FCC
:1044D000111F2A95D1F7CE0168E1A80197010E942A
:1044E000FB21882311F084E023C0CE016EEFA601EA
:1044F0000E9471218823E9F0CE0168E572E00E94F4
:104500004321882311F485E113C0CE016DE020E042
:1045100030E040E050E00E94FB21882341F48FEF1F
:104520008EBD0DB407FEFDCF8EB5882379F084E1F2
:104530008D83CE010E946B2180E0DF91CF911F918E
:104540000F91FF90EF90DF90CF900895CE010E94E1
:104550006B2181E0F2CF8F929F92AF92BF92CF9268
:10456000DF92EF92FF920F931F93CF93DF93EC01B3
:104570005A016B0149010115110509F47BC0C801FD
:10458000820F931F8150924008F06FC08E81882364
:1045900071F088819981AA81BB81481759076A0700
:1045A0007B0729F48F8198858816990618F5A882CB
:1045B000B982CA82DB828B85833039F069E0AA0C2C
:1045C000BB1CCC1CDD1C6A95D1F7CE0161E1A601B4
:1045D00095010E94FB21882319F083E08D8345C05B
:1045E000CE010E94AB21882309F43FC018861F82A8
:1045F00081E08E838FEF8EBD8F8198852FEF05C070
:104600000DB407FEFDCF2EBD019688159905C0F3A8
:1046100098878F83D801119720E030E09FEF0BC07F
:104620000DB407FEFDCF8EB5F701E20FF31F8083B7
:104630009EBD2F5F3F4F2A173B0790F30DB407FE37
:10464000FDCF8EB5AE0DBF1D8C932F813885200F09
:10465000311F38872F838985882319F020503240F5
:1046600048F0CE010E94D82105C0CE010E946B21E6
:1046700080E001C081E0DF91CF911F910F91FF9009
:10468000EF90DF90CF90BF90AF909F908F90089564
:10469000EF92FF920F931F93790120E030E000E04A
:1046A00012E00E94AB221F910F91FF90EF900895AE
:1046B000BF92CF92DF92EF92FF920F931F93CF930F
:1046C000DF93EC01B62E1B8619861E821D824C8359
:1046D0000E944E0E6B018C8161E00E94170FCE018B
:1046E0000E946B2182E360E00E94170F83E361E088
:1046F0000E94170F84E361E00E94170F85E361E0D9
:104700000E94170F85E361E00E94CA0F83E58CBD0C
:104710008DB58E7F8DBD80E09FEF9EBD0DB407FEF1
:10472000FDCF8F5F8A30C9F7CE010E94652109C095
:104730000E944E0E6C197D09615D774010F081E09A
:104740005EC0CE0160E020E030E040E050E00E943A
:10475000FB21182F8A87813059F7CE0168E02AEAB9
:1047600031E040E050E00E94FB2182FF02C01B8745
:1047700011C080E02FEF2EBD0DB407FEFDCF9EB51A
:104780008F5F8430C1F79A879A3A11F082E037C080
:1047900082E08B878B85823021F0EE24FF24870115
:1047A0000FC0E12CF12C012DF0E41F2F09C00E9455
:1047B0004E0E6C197D09615D774010F088E01FC0D6
:1047C000CE0167E320E030E040E050E00E94FB21B2
:1047D000CE0169E2A80197010E94FB218A87882304
:1047E00031F78B85823031F5CE016AE320E030E08D
:1047F00040E050E00E94FB21882339F086E08D8361
:10480000CE010E946B2180E01CC08FEF8EBD0DB4E5
:1048100007FEFDCF8EB5807C803C11F483E08B8752
:1048200080E09FEF9EBD0DB407FEFDCF2EB58F5FDC
:104830008330C1F7CE010E946B21CE016B2D0E9407
:104840001E21DF91CF911F910F91FF90EF90DF908C
:10485000CF90BF900895CF93DF93EC01DB0180E010
:1048600090E020E2FD01E80FF91F208301968B30D4
:104870009105C1F757E040E021C02E3219F086EED5
:1048800097E007C05A3019F15AE048E017C03217D4
:10489000F1F0FC01019634913323C9F75417B8F0B5
:1048A0002132A8F02F3798F4822F81568A3108F4EC
:1048B0002052FD01E40FF11D20834F5F2991222337
:1048C000E1F690E08C91803219F091E001C090E027
:1048D000892FDF91CF9108956F927F928F929F924F
:1048E000AF92BF92CF92DF92EF92FF920F931F93FE
:1048F000CF93DF93EC017A018B012D81222309F400
:1049000080C08B899C89AD89BE8984179507A607CD
:10491000B70708F476C085C0E114F104010511055C
:1049200049F41E821F82188619861A861B861C86E9
:104930001D8665C02A853B854C855D85EB8DFC8D8C
:10494000858590E009962150304040405040390123
:104950004A01082E04C096948794779467940A9429
:10496000D2F72F5F3F4F4F4F5F4F0894E108F10898
:10497000010911095701680104C0D694C794B7947E
:10498000A7948A95D2F70894E11CF11C011D111D12
:10499000A614B704C804D90428F02115310541052F
:1049A000510549F48F89988DA98DBA8D8E839F8387
:1049B000A887B98716C0A618B708C808D90811C0B3
:1049C0004E815F81688579858B8D9C8D94010E94D5
:1049D000462E0894A108B108C108D108882331F4F3
:1049E00010C086E0882E912C8C0E9D1EA114B1045F
:1049F000C104D10429F7EA86FB860C871D8781E074
:104A000001C080E0DF91CF911F910F91FF90EF9057
:104A1000DF90CF90BF90AF909F908F907F906F90DE
:104A20000895223009F078CFE6CFCF93DF93EC01E1
:104A3000462F6E857F85888999890E942A2C882334
:104A400019F420E030E00AC08A89282F30E095E090
:104A5000220F331F9A95E1F7215C384FC901DF918E
:104A6000CF9108950F931F93CF93DF938C01FC0197
:104A700085818823D9F1848187FF35C0C80161E031
:104A80000E941525EC01009789F1F801858182309B
:104A900040F483899489A589B6898C8F9D8FAE8FC8
:104AA000BF8FF8018789908D9B8F8A8F8789908D22
:104AB000A18DB28DCD01AA27BB279D8B8C8BE09158
:104AC0003D07F0913E07309751F0BE016A5E7F4F7F
:104AD000CE0148961995888D998D9B8B8A8BF8010C
:104AE00084818F7784830E94CB2B01C080E0DF918B
:104AF000CF911F910F910895CF93DF93EC010E9406
:104B00003225882311F01D8281E0DF91CF91089535
:104B10006F927F928F929F92AF92BF92CF92DF92CD
:104B2000EF92FF920F931F93DF93CF9300D00F92DA
:104B3000CDB7DEB77C015A016B01DC0115968C9173
:104B40001597813009F08FC014968C9181FF8BC02E
:104B50009EC00097A105B10511F481E085C0F70161
:104B60006284738484849584C701B601A5010E9480
:104B70006C24882309F477C0D7015B968D919C91B2
:104B80005C97A114B104C104D10489F457964D91E6
:104B90005D916D917C915A970E94B92E882309F4FA
:104BA00062C0F701178A108E118E128E3DC0D70198
:104BB00016964D915D916D917C9119979E012F5F95
:104BC0003F4F0E94462E882309F44DC0D7015B96C3
:104BD000ED91FC915C9749815A816B817C81878939
:104BE000803129F088EF9FEFAFEFBFE004C088EF7E
:104BF0009FEFA0E0B0E0481759076A077B07A0F4D1
:104C0000CF010E94B92E882371F1F70146815781A7
:104C100060857185838D948D0FEF1FEF2FEF3FE03F
:104C20000E94AA2D8823F9F0D7015396AD92BD9228
:104C3000CD92DC92569714968C91149780681496B6
:104C40008C93C7010E943225882369F0B601A50123
:104C50006A147B048C049D0410F4B401A301C70101
:104C60000E946C2401C080E00F900F900F900F9075
:104C7000CF91DF911F910F91FF90EF90DF90CF9038
:104C8000BF90AF909F908F907F906F900895F701A5
:104C900083899489A589B68984179507A607B707DC
:104CA00008F057CFE0CF2F923F924F925F926F92D2
:104CB0007F928F929F92AF92BF92CF92DF92EF92AC
:104CC000FF920F931F93CF93DF93EC012A018D8105
:104CD000882309F4C6C08C8180FFC3C0D8C02501D9
:104CE0004E185F084B0176E0272E312C2C0E3D1E0E
:104CF0003201B1C02A853B854C855D856FEFA62EBC
:104D000061E0B62EA222B3228D8179018A0199E059
:104D100016950795F794E7949A95D1F7EB8DFC8D4E
:104D2000823049F4428D538D648D758D4E0D5F1D1B
:104D3000601F711F3FC0D480DA94DE20A114B1043B
:104D4000D9F4DD20C9F4211531054105510549F497
:104D50008F89988DA98DBA8D8E839F83A887B987F7
:104D60000BC04E815F8168857985CF0191010E94DA
:104D7000462E882309F475C0EB8DFC8D4E815F8132
:104D8000688579854250504060407040058404C079
:104D9000440F551F661F771F0A94D2F786859785A3
:104DA000A089B189480F591F6A1F7B1F4D0D511DE6
:104DB000611D711D80E092E08A199B0963018615CF
:104DC000970508F46C018C8186FD06C080E0C8164A
:104DD00082E0D80609F073C080917F039091800330
:104DE000A0918103B0918203481759076A077B0796
:104DF00009F465C080913F099091400995018601B1
:104E000074010E94AB22882361F18C0C9D1C12C09E
:104E10009501215C384FA9014C0D5D1DD401F901AC
:104E200002C081918D93E417F507D9F7E21BF30BCC
:104E30008E0E9F1E960140E050E08A859B85AC85D2
:104E4000BD85820F931FA41FB51F8A879B87AC87E0
:104E5000BD876C187D086114710409F04BCFA20165
:104E600002C04FEF5FEFCA01DF91CF911F910F9109
:104E7000FF90EF90DF90CF90BF90AF909F908F907A
:104E80007F906F905F904F903F902F900895AB88E8
:104E9000BC88CD88DE88EA84FB840C851D859A0158
:104EA00040E050E0D601C5018E199F09A00BB10B5F
:104EB00082179307A407B50708F411CF13CFCB01CE
:104EC000BA0140E00E942A2C882309F0A1CFC9CF63
:104ED000CF92DF92EF92FF920F931F93DF93CF93C6
:104EE0000F92CDB7DEB76C01FC018581823070F086
:104EF000E284F38404851585C601BE016F5F7F4F90
:104F000041E050E00E945326019769F020E030E034
:104F1000C9010F90CF91DF911F910F91FF90EF90FA
:104F2000DF90CF900895F60182859385A485B5859D
:104F30004F96A11DB11D82879387A487B587F5E0A1
:104F400016950795F794E794FA95D1F78E2D8F7003
:104F5000282F30E0E5E0220F331FEA95E1F7215CCE
:104F6000384FD6CF0F931F93CF93DF93EC018B0174
:104F70008D81882309F041C0FB0187898031B1F41C
:104F800082E08D831F8A188E198E1A8E808D918DE6
:104F9000A0E0B0E045E0880F991FAA1FBB1F4A950B
:104FA000D1F78B8B9C8BAD8BBE8B15C0803229F5D6
:104FB00083E08D83FB01428D538D648D758D4F8B06
:104FC000588F698F7A8F9E012D5E3F4FC8010E94D6
:104FD000122F882391F01C8F0B8F81E08C831E820F
:104FE0001F82188619861A861B861C861D861E86B9
:104FF0001F86188A198A1A8A01C080E0DF91CF9132
:105000001F910F9108951F93CF93DF93EC01142FFD
:10501000E62FF0E075E0EE0FFF1F7A95E1F7E15C17
:10502000F84F8385817121F0842F827409F054C078
:105030006A8B80917F0390918003A0918103B0914E
:1050400082038E879F87A88BB98B84899589A0E07E
:10505000B0E0BC0155274427828D938DA0E0B0E0DD
:10506000482B592B6A2B7B2B4F8B588F698F7A8F4C
:10507000838590E088719070009751F4848D958DB0
:10508000A68DB78D8B8B9C8BAD8BBE8B81E00CC0BE
:10509000409711F59E012D5E3F4F8B8D9C8D0E9498
:1050A000122F8823C9F084E08D83812F8F708C8329
:1050B0001E821F82188619861A861B861C861D86EC
:1050C00016FD02C081E009C0CE0140E050E060E082
:1050D00070E00E94882501C080E0DF91CF911F9190
:1050E0000895CF93DF93EC019C012A5F3F4F8B8D96
:1050F0009C8D41E050E060E070E00E94812F8823A9
:10510000A1F08F89988DA98DBA8D0097A105B10561
:1051100059F48E819F81A885B9858F8B988FA98F2F
:10512000BA8F8C8180688C8381E0DF91CF91089564
:105130002F923F924F925F927F928F929F92AF9267
:10514000BF92CF92DF92EF92FF920F931F93DF9364
:10515000CF9300D000D0CDB7DEB76C01162F072F4C
:105160005E834D83DC0115968C911597813009F093
:1051700070C114968C9181FF6CC18EC1F601438978
:1051800054896589768982859385A485B585841738
:105190009507A607B70731F0C6010E946C24882343
:1051A00009F457C1812F902F9C0129012D803E8049
:1051B00017C1D6015B96ED91FC915C97DA01C901AC
:1051C00019E0B695A795979587951A95D1F77480AC
:1051D0007A9478227FEF872E71E0972E8222932295
:1051E000772009F04EC08114910409F04AC0D6011D
:1051F00016964D915D916D917C91199741155105D0
:105200006105710581F457968D919D910D90BC912A
:10521000A02D0097A105B10549F1F601868397837A
:10522000A087B1872EC0CF019E012F5F3F4F0E9404
:10523000462E882309F414C129813A814B815C816F
:10524000D6015B96ED91FC915C978789803129F0BE
:1052500088EF9FEFAFEFBFE004C088EF9FEFA0E0C3
:10526000B0E0281739074A075B0730F0C6010E94F3
:105270007128882331F4EDC0F601268337834087F7
:10528000518780E092E088199909510182159305B0
:1052900008F45C01D6015B96ED91FC915C97169643
:1052A000ED90FD900D911C9119978EEF9FEFAFEF50
:1052B000BFEFE80EF91E0A1F1B1F058404C0EE0C89
:1052C000FF1C001F111F0A94D2F786859785A089BD
:1052D000B189E80EF91E0A1F1B1FE70CF11C011D06
:1052E000111D90E0A91692E0B90651F580917F0357
:1052F00090918003A0918103B09182038E159F0548
:10530000A007B10761F48FEF9FEFAFEFBFEF80937E
:105310007F0390938003A0938103B09382038091D5
:105320003F0990914009B801A70192010E944E22C5
:10533000882309F48EC0A0E0B2E04A0E5B1E3EC096
:105340008114910409F5F60122853385448555853C
:1053500083899489A589B689281739074A075B0785
:1053600098F00E94CB2B882309F473C0E0927F034E
:10537000F09280030093810310938203809141098E
:1053800081608093410908C0C801B70141E00E94D3
:105390002A2C882309F45DC09401215C384FA901AF
:1053A0004A0D5B1DD201F90102C08D918193E41772
:1053B000F507D9F7E21BF30B4E0E5F1E2A183B08C8
:1053C000950140E050E0F60182859385A485B5857E
:1053D000820F931FA41FB51F82879387A487B58769
:1053E000D6011A962D913D914D915C911D972114F6
:1053F000310409F0DECE53968D919D910D90BC91B4
:10540000A02D82179307A407B50748F4F601238B54
:10541000348B458B568B84818068848311C0809146
:105420003D0790913E07892B59F08D819E81892BF4
:1054300039F0D60114968C911497806814968C9349
:10544000F601848183FF0EC0C6010E9432258823A5
:1054500049F481E090E0D60113969C938E931297C5
:105460001E821D828D819E8126960FB6F894DEBF26
:105470000FBECDBFCF91DF911F910F91FF90EF90A5
:10548000DF90CF90BF90AF909F908F907F905F9074
:105490004F903F902F90089582FD70CE83CEDF9382
:1054A000CF930F92CDB7DEB76983BE016F5F7F4F99
:1054B00041E050E00E9498280F90CF91DF9108952D
:1054C000DF92EF92FF920F931F93CF93DF93EC0144
:1054D0000E947128882309F44EC0EB8DFC8DEE806C
:1054E000FF80088519858EEF9FEFAFEFBFEFE80EC5
:1054F000F91E0A1F1B1F058404C0EE0CFF1C001FB1
:10550000111F0A94D2F786859785A089B189E80E84
:10551000F91E0A1F1B1FD4800894E108F108010935
:1055200011090BC0C801B7016D0D711D811D911DC1
:105530000E94062C8823F9F0DA94DD2099F7EB8D90
:10554000FC8D20E032E040E050E0058404C0220FF2
:10555000331F441F551F0A94D2F78B899C89AD894C
:10556000BE89820F931FA41FB51F8B8B9C8BAD8BA5
:10557000BE8B81E001C080E0DF91CF911F910F9140
:10558000FF90EF90DF9008956F927F928F929F929D
:10559000AF92BF92CF92DF92EF92FF920F931F9341
:1055A000DF93CF93CDB7DEB72B970FB6F894DEBF5E
:1055B0000FBECDBF5C016B01822EDC0115968C9174
:1055C000882309F0D2C0CA018E010F5F1F4FB801B6
:1055D0000E942B24882309F4C8C0F601838D948D82
:1055E000D5015C969C938E935B97168217821086EA
:1055F0001186D6011A961D921D921D921C921D971E
:105600009924380141C0C6010E946827FC01009717
:1056100009F4ABC085E016950795F794E7948A9551
:10562000D1F71E2D1F708081882311F0853ED1F4A3
:10563000992091F4D50152961C93529720917F03A3
:105640003091800340918103509182031E962D93E7
:105650003D934D935C9351978081882399F49924CD
:10566000939421C0C301BF014BE050E00E949734E6
:10567000009751F4882D8073803309F476C0C501FA
:10568000612F6FC099249394F601E284F38404851A
:10569000158583899489A589B689E816F9060A07CC
:1056A0001B0708F4B0CF882D8271823109F05DC0EC
:1056B000992041F0C50161E00E9415258C010097F9
:1056C00089F453C0D60115968C91823009F44DC0EF
:1056D000C6010E94602A882309F447C0F501128A96
:1056E0000FE317E080E2D8011D928A95E9F7D8010F
:1056F000FE0131968BE001900D928150E1F7E0912F
:105700003D07F0913E07309739F0B801625F7F4F57
:10571000C8014096199509C081E298E2F801918B81
:10572000808B80E098E097878687D80150968D918E
:105730009C91519753969C938E93529759969C9314
:105740008E9358971E968D919C911F9757969C9378
:105750008E9356970E94CB2B882339F0C501F50113
:105760006289482D0E94032801C080E02B960FB665
:10577000F894DEBF0FBECDBFCF91DF911F910F9187
:10578000FF90EF90DF90CF90BF90AF909F908F9061
:105790007F906F90089580914109882399F14091FD
:1057A0007F03509180036091810370918203809107
:1057B0003F09909140092FE337E00E944E22882351
:1057C00019F1409142095091430960914409709147
:1057D0004509411551056105710591F080913F0919
:1057E000909140092FE337E00E944E22882361F018
:1057F00010924209109243091092440910924509EF
:105800001092410981E0089580E00895EF92FF929F
:105810000F931F937B018C010E94CB2B8823A9F04F
:10582000EFE3F7E0119289E0EF33F807D9F7E09260
:105830007F03F09280030093810310938203809191
:10584000410981608093410981E01F910F91FF9090
:10585000EF900895DF92EF92FF920F931F937B01D9
:105860008C01D42E80917F0390918003A0918103BD
:10587000B09182038E159F05A007B107C1F00E9469
:10588000CB2B8823D9F080913F0990914009B80132
:10589000A7012FE337E00E944823882379F0E092A4
:1058A0007F03F09280030093810310938203809121
:1058B00041098D298093410981E001C080E01F9159
:1058C0000F91FF90EF90DF9008958F929F92AF928B
:1058D000BF92CF92DF92EF92FF920F931F93CF93DD
:1058E000DF936C01142F7093400960933F094423A8
:1058F00021F488249924540140C0453008F01CC18B
:1059000060E070E080E090E040E00E942A2C882374
:1059100009F412C1C12FD0E02197FE0174E0EE0F0F
:10592000FF1F7A95E1F7E15CF84FE254FE4F80816A
:10593000EE5BF14090E08F779070892B09F0FCC00E
:10594000E653FE4F80819181A281B3818436910517
:10595000A105B10508F4F0C064E0CC0FDD1F6A9525
:10596000E1F7CB5FD64F88809980AA80BB808114F5
:105970009104A104B10409F4DFC0C501B40140E001
:105980000E942A2C882309F4D7C080914A0790915D
:105990004B078050924009F0CFC020914F0722233F
:1059A00009F4CAC080914D0790914E07892B09F4E4
:1059B000C3C080914C07882309F4BEC0F601228B36
:1059C00080914C078483158661E070E007C04F5FCB
:1059D000F60145874150483008F0AEC0F6014585D4
:1059E000848190E09B01042E02C0220F331F0A9491
:1059F000E2F78217930759F7209155073091560720
:105A00002115310519F040E050E008C020916307EE
:105A1000309164074091650750916607F601258330
:105A2000368347835087E0904D07F0904E0700E0A3
:105A300010E0E80CF91C0A1D1B1DE38AF48A058B93
:105A4000168B8091500790915107918F808F6091B4
:105A50004F0770E080E090E00E94BE346E0D7F1D25
:105A6000801F911FF601628F738F848F958F209115
:105A700050073091510755E0220F331F5A95E1F737
:105A800021503E4F232F3327269540E050E0260F2C
:105A9000371F481F591F26873787408B518B8091AE
:105AA000520790915307009719F0A0E0B0E008C0AA
:105AB00080915F0790916007A0916107B0916207A4
:105AC00085017401E21AF30A040B150BA801970172
:105AD000280F391F4A1F5B1FF601058404C0569525
